:020000040800F2
:1000000000040020E1010008E3010008E20100080B
:10001000E2010008E2010008E2010008E201000834
:10002000E2010008E2010008E2010008C124000822
:10003000E2010008E2010008E2010008E201000814
:10004000E2010008E2010008E2010008E201000804
:10005000E2010008E2010008613600088D36000860
:10006000B9360008E536000811370008E20100083B
:10007000E2010008E2010008E2010008E2010008D4
:10008000E2010008E2010008E2010008E2010008C4
:10009000E2010008E2010008E20100083D37000823
:1000A000E2010008E2010008E2010008E2010008A4
:1000B00075340008E2010008E2010008E2010008CE
:1000C000E2010008E2010008E2010008E201000884
:1000D000E2010008790E00088D0E0008E201000818
:1000E000A5370008E2010008E2010008E20100086B
:1000F000E2010008E2010008E2010008E201000854
:10010000E2010008E2010008E2010008E201000843
:10011000E2010008A10E0008E2010008E201000867
:10012000E2010008E2010008E2010008E201000823
:10013000E2010008E2010008E2010008E201000813
:10014000E2010008E2010008E2010008AD2B00080E
:10015000E2010008E2010008E2010008E2010008F3
:10016000E2010008E2010008E2010008E2010008E3
:10017000E2010008E2010008E2010008E2010008D3
:10018000E2010008E2010008E2010008E2010008C3
:10019000E2010008E2010008E2010008E2010008B3
:1001A000E2010008E2010008E2010008E2010008A3
:1001B000E2010008E2010008E2010008E201000893
:1001C000E2010008E2010008E2010008E201000883
:1001D000E2010008E2010008E2010008E201000873
:1001E00002E000F000F8FEE772B6394880F30888B4
:1001F000384880F3098838484EF60851CEF200019D
:10020000086040F20000CCF200004EF63471CEF2ED
:1002100000010860BFF34F8FBFF36F8F40F2000003
:10022000C0F2F0004EF68851CEF200010860BFF334
:100230004F8FBFF36F8F4FF00000E1EE100A4EF6C4
:100240003C71CEF200010860062080F31488BFF3F1
:100250006F8F02F073F903F0A5F84FF055301F4986
:100260001B4A91423CBF41F8040BFAE71C49194A6A
:1002700091423CBF41F8040BFAE71A491A4A1B4B5A
:100280009A423EBF51F8040B42F8040BF8E70020F5
:100290001749184A91423CBF41F8040BFAE702F0B3
:1002A00051F903F0DBF8144C144DAC4203DA54F866
:1002B000041B8847F9E700F03FF8114C114DAC42A0
:1002C00003DA54F8041B8847F9E702F039B9000053
:1002D000000400200024002000000008000000208E
:1002E00000040020183C00080024002028240020DE
:1002F0002824002038410020E0010008E001000827
:10030000E0010008E00100082DE9F04F2DED108A12
:10031000C1F80CD0C3689D46BDEC108ABDE8F08FD3
:10032000002383F311882846A047002001F088FDB0
:1003300001F038FD00DFFEE738B5184B6FF07802AA
:1003400000241A700F225C709C70DC701C715C7150
:100350009C71DC711C725C729A72DC7202F08EF815
:100360000F4B984208D00133984241F2883412BFB3
:1003700000250024012500E02546002002F084F835
:100380000DB100F053F800F077FC00F04FFB204671
:1003900000F0A0F800F04AF8F9E700BF2824002098
:1003A000010007B008B500F0CBFAA0F120035842D5
:1003B000584108BD07B5054B01A81B88ADF80430AE
:1003C000022100F01DFB03B05DF804FBA438000817
:1003D00008B51248C3680BB101F0B8FD104A0F48C8
:1003E00000234FF47A7101F075FD0E4B1A6812B1BB
:1003F0001A68013A1A605A680A4912B14A68013A01
:100400004A60094A12783AB95B682BB9022000F0B9
:10041000EDFB044B32225A6008BD00BF342400209B
:10042000D10300084C2900204829002038B5224C6F
:10043000236801333ED0214D214B2A689A4239D995
:10044000204B9B6803F1006303F580339A4231D25D
:10045000002000F005FB1C4B0220187000F0BCFBD4
:100460001A4B1A6C00221A64196E1A66196E596CAE
:100470005A64596E5A665A6E5A6942F080025A613D
:100480005A6922F080025A615A691A6942F0005290
:100490001A611A6922F000521A611B6972B60C4B7C
:1004A0001C6023682A68202181F311889D4683F30C
:1004B0000888104738BD00BF00000108040001088B
:1004C000FFFF0008282400204829002000380240AF
:1004D00008ED00E02DE9F04FBE4B8046BE489C6819
:1004E0000022C26091B0202282F31188C268019379
:1004F0000AB101F02BFDB848B84A4FF47A710023D5
:1005000001F0E8FC002383F31188DFF8ECA2B8F1D6
:10051000000F01D0CAF80080B14ECAF8043000259F
:100520003370A9464FF0FF37012000F055FBB8F1BA
:10053000000F04D0DAF80030002B00F0F781002023
:1005400000F0FEF90590059B002BF0DB012000F088
:1005500039FB059B213B122BE6D801A252F823F070
:10056000AD050008BF0500082B0600082905000896
:1005700029050008290500089F060008290500082C
:100580004F070008FD0700082B0800085508000861
:10059000290500086B0800082905000895080008CF
:1005A000F908000829050008C50800080220FFF71F
:1005B000F9FE002800F0A7814FF001099CE14FF4FB
:1005C0007A7000F0BDF9B0F1000BC0F29C810220FE
:1005D000FFF7E8FE002800F096810BF1FF300428B9
:1005E00000F29181DFE800F003080A0C110010A866
:1005F000052340F8143D04E0764802E0794800E025
:100600007948042100F0FCF90DE01C25284600F093
:1006100029FA10AB042143F8140D0435184600F0F4
:10062000EFF92C2DF2D1012566E1B9F1000F00F0B0
:100630006A81002D00F067810220FFF7B3FE10B938
:100640000125A9465FE1012000F00AFA022030707E
:1006500000F0C2FA0024E3B21846029300F018FA40
:1006600001348346029B18B1184600F021FAF2E7E4
:1006700001230220337000F0A5FA019B9B689B4583
:1006800008D2584600F0EEF9013040F045810BF1F8
:10069000040BF2E700243470CAF804402CE1B9F1ED
:1006A000000F00F03081002D00F02D81022030700D
:1006B00000F092FA322000F043F9B0F1000BBFDBFA
:1006C0001BF00303BCD1019989680BEB04028A4239
:1006D000B6D8BBF5807FB3D85B450EDA4FF47A709D
:1006E000029300F02DF90590059A002AA8DB029BE1
:1006F0003E4A059999540133EEE7C820FFF752FEB0
:1007000000289DD024B9394B4FF0FF321F681A6082
:100710002BF0030B0BEB0403A3469B4515D0334A88
:100720000393121B584652F80B10029200F0A0F9E6
:10073000584600F097F9029A52F80B20904240F088
:10074000EB800BF1040B039BE7E75C46D4E002204F
:10075000FFF728FE002800F0D6804FF00008C346BF
:10076000019B9B68984530D2B8F1000F03D17A1CE9
:1007700001D00B9703E0404600F074F90B901C4940
:100780004B6893B91A46082012F0010F4FEA520E37
:1007900016BF184A72468EEA02020138F4D141F8B7
:1007A00023200133B3F5807FECD100220BABD35C67
:1007B00083EA0B03DBB2013251F82330042A83EAC7
:1007C0001B2BF3D108F10408CAE710A840F828BD94
:1007D00029E000BF2824002034240020D103000891
:1007E000482900202C240020302400204828002004
:1007F000482400202083B8ED4C29002010A80023B5
:1008000040F8143D642100F0CDF800287BD102208F
:10081000FFF7C8FD002876D00B9800F05BF910AB0D
:1008200043F8240D1846042131E010A8002340F8B5
:10083000143D642100F0B6F8002864D10220FFF7CF
:10084000B1FD00285FD00B9800F054F910AB43F8CD
:10085000200DE7E70220FFF7A5FD002853D000F0A8
:100860004FF910AB43F81C0DDCE70220FFF79AFDAF
:10087000002848D00BA9142000F048F9804610A8A1
:10088000042140F8188D00F0BBF80BA8414600F099
:10089000B7F831E04FF47A70FFF784FD98B37B1C12
:1008A00005D1FFF787FD234801F0D0FA3EE0002094
:1008B000394600F0DDF8002000F0D4F8B842F0D05E
:1008C000A34629E010A8002340F8143D642100F05D
:1008D00069F88346B8B90220FFF764FD98B1FFF7C5
:1008E00069FD41F2883001F0B1FA0B9800F002FA8C
:1008F000D84600F0B7F917E600F0B4F94FF0000859
:10090000FFF758FD10E60C4B0BA81B88ADF82C30F8
:10091000022100F075F807E6084B0BA81B88ADF81C
:100920002C30022100F06CF85C46FDE511B0BDE80A
:10093000F08F00BFA0860100A6380008A838000884
:10094000F7B500244FF47A758DF807404543124BF4
:1009500093F900305A1CE6B201D0A34210D10F4BDC
:1009600053F8240003680DF107011F6A01222B468A
:10097000B847012804D10A4B9DF807001E7008E013
:100980000134042CE3D14FF4FA7001F05FFA4FF612
:10099000FF7000B203B0F0BD00240020AC380008A6
:1009A00068290020F8B54FF47A7506464D430024B7
:1009B000104B93F900305A1CE7B201D0A3420FD17B
:1009C0000D4B53F8240003683146D3F820C00422AD
:1009D0002B46E047042803D1084B1F700020F8BDC8
:1009E0000134042CE4D14FF4FA7001F02FFA4FF0E7
:1009F000FF30F8BD00240020AC3800086829002032
:100A000010B50A46064903460878064951F8200001
:100A10000168CC691946A446034BBDE81040604705
:100A200068290020AC380008A086010070B501F0EC
:100A30004FFC094B002618701C46084D2378286887
:100A4000984208D201F03EFC2B6806440133B6F50B
:100A5000803F2B60F1D370BD702900206C290020ED
:100A600001F0F8BC00F1006000F5803000687047CC
:100A700007B502AB00F1006043F8041D04221946DB
:100A800000F5803001F068FC03B05DF804FB000065
:100A9000054B1A68054B1B781344984202D2104448
:100AA00001F010BC002070476C2900207029002044
:100AB00038B5074D04462868204401F00BFC28B9DE
:100AC00028682044BDE8384001F01CBC38BD00BF98
:100AD0006C290020034610F0030008D1B3F5007F15
:100AE00006D803F10053A3F50843186870470020A7
:100AF00070470000014BC058704700BF107AFF1FBD
:100B0000014B1868704700BF002004E070B52A4B05
:100B10001C68C4F30B03240C83B140F213429342CC
:100B200009D040F21942934207D040F22142934249
:100B30000BD1032302E0012300E002231F4A0C250E
:100B400005FB03235D681A7A01E01D4D3F2242F246
:100B500001039C422CD0B4F5805F08D041F2010320
:100B60009C420BD041F203039C4209D000E0412299
:100B700041F207039C4208BF312202E05A2200E002
:100B80005922461E0E44013D0C46B4420ED215F8C1
:100B9000010F631C18B11C4603F8010CF5E72C206B
:100BA000B342207006D2A31C627003E0234601E02A
:100BB0003322DDE7581A70BD002004E0BC3800087D
:100BC000EC380008022802BF024B4FF080629A61A5
:100BD000704700BF00080240022802BF024B4FF4DA
:100BE00080629A61704700BF00080240022801BF7E
:100BF000024A536983F480635361704700080240DE
:100C000010B50023934203D0CC5CC4540133F9E700
:100C100010BD000030B5013810F8013F0C4663B13B
:100C20002578AB4201F1010107D10AB1013AF3E79E
:100C30005AB294F90030D01A30BD002AF8D11046CB
:100C400030BD000002460346981A13F9011B002923
:100C5000FAD1704702440346934202D003F8011BC5
:100C6000FAE77047024B1A78024B1A70704700BFC0
:100C7000682900200024002010B5184C184800F006
:100C800035FC2146164800F05DFC236815485A6D76
:100C9000D2F8043843F00203C2F8043801F0D6F861
:100CA0002068114900F056FD23685A6DD2F80438C7
:100CB00023F00203C2F804380C4B4FF4E1321A60FF
:100CC00000240B4B53F82400054B984202D00749EF
:100CD00000F068FB0134042CF3D110BD883A000801
:100CE000FC36002040420F001C3A00085429002026
:100CF000AC38000838B50C4B1A780C4B53F822402E
:100D00000B4B9C4205460DD00A4B0021184614227D
:100D1000FFF7A0FF0346056019462046BDE83840AE
:100D200000F040BB38BD00BF68290020AC38000887
:100D3000FC360020542900200268436811430160FA
:100D400003B1184770470000024AD36843F0C0035C
:100D5000D360704700100140024AD36843F0C003DB
:100D6000D360704700440040024AD36843F0C00398
:100D7000D3607047005000402DE9F041D0F85C642A
:100D8000F7683368DA0505469CB20DD5202383F356
:100D900011884FF400710430FFF7CEFF6FF48073B9
:100DA0003360002383F31188202383F3118814F028
:100DB0002F0321D0230713D014F0080F0CBF0021FC
:100DC0008021E00748BF41F02001A20748BF41F061
:100DD0004001630748BF41F48071281DFFF7ACFF55
:100DE000A406736895F8601403D52846194000F0EE
:100DF000E7FA3468A4B2DAE783F31188380617D526
:100E0000210615D5202383F3118805F1380000F061
:100E100029FA002808DA281D0821FFF78DFF4FF670
:100E20007F733B40F36000E07060002383F3118820
:100E30007A060DD563060BD5202383F31188EA6C5F
:100E40002B6D9A4201D12B6C53B9002383F3118887
:100E5000D5F86424D36863B11069BDE8F041184740
:100E6000281D1021FFF768FF4FF6BF733B40F3606A
:100E7000EBE7BDE8F081000008B50348FFF77CFF11
:100E8000BDE8084001F02CBB7429002008B50348D8
:100E9000FFF772FFBDE8084001F022BBDC2D002007
:100EA00008B50348FFF768FFBDE8084001F018BB2C
:100EB0004432002010B50E4C0E4A2046002100F0AE
:100EC0004FFA0D4BC4F85C340C4C0D4A20460021FF
:100ED00000F046FA0B4BC4F85C340B4C0B4A20462E
:100EE000002100F03DFA0A4BC4F85C3410BD00BF8D
:100EF00074290020490D000800100140DC2D00205D
:100F0000590D00080044004044320020690D0008DB
:100F10000050004038B5384D037C002918BF0D46FD
:100F2000012B0446C0F864542ED1344B98420BD1A7
:100F3000334B5A6C42F010025A645A6E42F010025F
:100F40005A665B6E25201CE02E4B98420BD12C4B31
:100F50001A6C42F400321A641A6E42F400321A66B5
:100F60001B6E26200DE0284B98420DD1244B1A6CA5
:100F700042F480121A641A6E42F480121A661B6ED2
:100F800035200B2100F04AF8204BD4F85C249A421B
:100F90002B684FEA530002D01D498A4201D11D49F6
:100FA00000E01D490144B1FBF3F3A988080442BFE6
:100FB00023F0070003F0070343EA40039360EB8844
:100FC00043F040039BB213612B8943F001039BB2B2
:100FD000536141F4045343F02C03D36001F4A05156
:100FE00000231360B1F5806F136853680CBF7F2333
:100FF000FF2384F8603438BD1839000874290020B4
:1010000000380240DC2D0020443200200010014056
:101010000014014000BD010580DE800200F1604344
:1010200000F01F02400903F5614309018000C9B2C5
:1010300000F1604083F8001300F561400123934004
:10104000C0F8803103607047F8B5154682680669BC
:101050000B469542816988BF8568761AB542044679
:10106000184605D22A46FFF7CBFDA3692B4411E0B1
:101070000CD93246FFF7C4FDAF1B3A463044E16855
:10108000FFF7BEFDE3681F44A76104E02A46FFF7AF
:10109000B7FDE368A361A3685B1BA3602846F8BDA6
:1010A00083682DE9F04104469A421546266988BFB7
:1010B00085684069361AB5420F4605D22A46FFF7C1
:1010C0009FFD63692B4411E00CD93246C6EB05083D
:1010D000FFF796FDE068B9194246FFF791FDE36816
:1010E000434403E02A46FFF78BFDE3686361A3688E
:1010F0005B1BA3602846BDE8F081000010B50A44E0
:101100000024C361029B006040608460C160816113
:1011100041610261036210BD08B58269436993426F
:1011200004D1826812B14FF0FF3008BD82680132ED
:1011300082605A1C42611970426903699A4201D364
:10114000C3684361002100F09DFE002008BD00003F
:1011500070B5202304460E4683F31188A56845B96F
:101160002046314600F07EFE0028F7DA85F311882C
:1011700070BDA368A269013BA360531CA3611578ED
:101180002269934224BFE368A361E3690BB120465F
:101190009847002383F31188284670BD2DE9F04756
:1011A0009A4605460E469046D0F81C90202383F3BD
:1011B00011881446DCB1284631462246FFF744FF29
:1011C000074630B92846514600F04CFE0028F1D0C1
:1011D0000DE0B9F1000F01D02846C847002383F382
:1011E00011882023E41B3E4483F31188E2E70023A7
:1011F00083F31188C4EB0800BDE8F0878260C36107
:101200000A44009B00604060C160816141610261ED
:1012100003627047F8B504460E461746202383F351
:101220001188A56845B92046394600F01BFE002804
:10123000F7DA85F31188F8BDA368013BA360636901
:101240005A1C62611E70236962699A4224BFE36876
:101250006361E3690BB120469847002080F3118851
:10126000F8BD0000836942699A4210B504D18268D2
:1012700012B14FF0FF3010BD8268013282605A1CFB
:1012800082611C7803699A4201D3C368836100219B
:1012900000F0F8FD204610BD2DE9F0479A460546BE
:1012A0000E469046D0F81C90202383F311881446F4
:1012B000DCB1284631462246FFF7F2FE074630B938
:1012C0002846514600F0CEFD0028F1D00DE0B9F1DE
:1012D000000F01D02846C847002383F3118820233C
:1012E000E41B3E4483F31188E2E7002383F3118873
:1012F000C4EB0800BDE8F087026843681143016051
:1013000003B1184770470000002070471430FFF702
:1013100045BF000014304FF0FF33FFF73FBF000020
:101320003830FFF7B9BF000038304FF0FF33FFF718
:10133000B3BF00001430FFF70BBF000014304FF0B4
:10134000FF31FFF705BF00003830FFF763BF000033
:1013500038304FF0FF32FFF75DBF0000FFF7AABD46
:1013600037B515460E4A026000220446426082608C
:10137000C260012202740B46009004F15C0114303B
:101380004FF40072FFF7BAFE009404F1380004F540
:1013900017714FF400722B46FFF730FF03B030BDDA
:1013A0002C39000810B52023044683F31188FFF779
:1013B000B1FD02232374002383F3118810BD0000C4
:1013C00038B5C36904460D461BB904300421FFF744
:1013D00093FF04F114002946FFF79EFE002806DA69
:1013E000201D4FF48061BDE83840FFF785BF38BD50
:1013F000026843681143016003B118477047000059
:101400000020704713B5446BD4F894341A681178EF
:10141000042916D1217C022913D1197912890123BB
:101420008B4013420DD104F14C0001A901F01CFEC8
:10143000024630B1D4F8943418681979019B00F051
:10144000D5F902B010BD0000143001F08BBD0000D2
:1014500014304FF0FF3301F085BD00004C3001F037
:1014600071BE00004C304FF0FF3301F06BBE000046
:10147000143001F05BBD000014304FF0FF3101F07B
:1014800055BD00004C3001F03DBE00004C304FF027
:10149000FF3201F037BE0000D0F8942438B513684D
:1014A00019780429054601D0012038BD017C0229A4
:1014B000FAD112795C89012090400440F4D105F101
:1014C000140001F0E9FC02460028EDD0D5F8943470
:1014D000186859794FF4807300F076F9204638BDCA
:1014E000406BFFF7D9BF0000704700007FB5124B7B
:1014F0000360002343608360C36004460125022625
:101500000E4B057429460193029004F18402009663
:1015100014304FF4807301F09BFC094B019300964B
:10152000029404F14C00294604F523724FF48073B1
:1015300001F076FD04B070BD54390008E1140008D4
:10154000051400080B68202282F311880A7903EB46
:10155000820290614A79093243F822008A7912B1F5
:1015600003EB8203986102230374C0F894140023F0
:1015700083F311887047000038B504460125043014
:101580000221FFF735FF04F1140025776FF0010108
:1015900000F084FC84F8545004F14C006FF0010119
:1015A000BDE8384000F07ABC10B501210446043093
:1015B000FFF71EFF0023237784F8543010BD00008E
:1015C00038B504460025143001F05AFC04F14C00F3
:1015D000257701F03DFD201D84F854500121FFF7CF
:1015E00007FF2046BDE83840FFF756BF90F844306B
:1015F00003F06003202B19D190F84520212A0AD04E
:10160000222A4FF000030CD0202A0FD1084A82630F
:101610000722C26307E0064B83630723C3630023EB
:1016200001E08363C36303640120704700207047B7
:1016300001240020D0F8943437B51A6811780429B1
:1016400004461AD1017C022917D119791289012384
:101650008B40134211D100F14C05284601F0D0FD1A
:1016600058B101A9284601F0FFFCD4F89434024691
:1016700019791868019B00F0B9F803B030BD00007B
:1016800000EB8103F7B59C6906460D465CB3202349
:1016900083F3118806EB8507201D0821FFF7A8FEBC
:1016A000FB685B691B684C3413B1204601F0EAFC0F
:1016B000204601A901F0D8FC024618B1304629465F
:1016C000019B0BE0FB685A69116849B11A8A531EE5
:1016D0000B4005D13046294606F1440200F086F859
:1016E000002383F3118803B0F0BD0000093138B541
:1016F00050F82140DCB1202383F31188D4F89424DE
:101700001368527903EB8203DB689B695D6845B11E
:10171000201D0421FFF76CFE04F11400294601F09E
:10172000C5FB2046FFF7B8FE002383F3118838BDC0
:101730007047000000F08EBF012303700023436058
:10174000C36183620362C3624362036303814381B3
:101750007047000038B50446202383F31188002524
:101760004160C56005614561856100F083FF02232A
:10177000237085F3118838BD70B500EB81030646F0
:101780005069DA600D46144618B100211022FFF7A7
:1017900061FAA06918B100211022FFF75BFA304608
:1017A0002946BDE8704001F02DB80000028902F022
:1017B00001020281428902F001024281002202619B
:1017C0004261826101F0B4B8F0B500EB8104468952
:1017D000E4680125A4698D403543458123600023D9
:1017E000A2606360BDE8F04001F0CEB8F0B500EB58
:1017F00081040689E468012564698D4035430581CB
:1018000023600023A2606360BDE8F04001F048B9A6
:1018100070B50223002504460370A0F84C5080F8F0
:101820004E5080F84F5005814581C5600561456186
:10183000856180F8345000F07FFF63681B6823B136
:1018400020462946BDE87040184770BD43680278BD
:101850001B6880F85020052202700BB10421184744
:1018600070470000436890F850201B6802700BB16D
:101870000521184770470000F8B590F83430044649
:1018800013B1002380F83430204604F1440201F003
:1018900071F863689B6833B994F8443013F06006BC
:1018A00040F0F68005E020469847002840F002818D
:1018B000F2E794F8455003F07F0343EA052540F230
:1018C00002339D4200F0D38014D8022D00F0A48092
:1018D00004D855B3012D00F09880D9E0B5F5817F8B
:1018E00000F0B480B5F5407F30D0B5F5807F40F092
:1018F000CF8021E040F201639D4206D8B5F5C06F6C
:101900004AD2B5F5A06F2FD0C2E0B5F5106F58D010
:1019100040F602439D4278D0B5F5006F40F0B880A4
:1019200004F14F03A363012349E004F14C03A363D3
:101930000223E3632564BDE094F84630012B40F0B8
:10194000A780B4F84C3023F0020308E094F8463046
:10195000012B40F09D80B4F84C3043F00203A4F812
:101960004C30A663E6636FE0B4F84430B3F5A06F83
:101970000ED194F8463084F84E30204600F036FF01
:1019800063681B6813B12046012198470323237025
:101990000023A363E3633DE0626894F8497094F820
:1019A0004830556894F8471094F84620204643EA9A
:1019B0000723A84700286BD04368A3630368E36349
:1019C00042E02378042B10D1202383F31188204692
:1019D000FFF7ECFE86F31188636884F84F601B689C
:1019E000032121700BB12046984794F84630002B14
:1019F000CED084F84F300423237063681B68002B1B
:101A0000C6D0204602219847C2E74E4BA36302236B
:101A1000E363002323644DE094F8481011F0800F35
:101A2000204601F00F0102D000F096FF01E000F027
:101A300085FF012805D002282AD1434BA363E06328
:101A400002E0424BA363E563266433E094F846303A
:101A5000F3B994F8483013F00F0199D01A062046D4
:101A600002D501F0EBF993E701F0DEF990E794F885
:101A700046306BB994F8483013F00F0188D01B063C
:101A8000204602D501F0C6F982E701F0B9F97FE7F7
:101A90002046002101F0BEF92046002101F0B0F9F6
:101AA00063681B6813B1204606219847062384F813
:101AB0003430F8BD94F84B2094F84A3043EA0223BE
:101AC000E26B9A4288BFE36394F94430E16B002BE8
:101AD0000D464FF0200317DA59B1092284F834205B
:101AE00083F3118800212046A26BE36BFFF77EFE93
:101AF00016E0142284F8342083F3118820460A4625
:101B00000B46FFF761FE19E071B1152284F834200D
:101B100083F3118800212046A26BE36BFFF754FE8C
:101B2000002383F31188F8BD0B2284F8342083F35B
:101B3000118820460A460B46FFF758FE85F31188A8
:101B4000F8BD00BF7C3900088039000884390008DE
:101B500038B590F834300446152B4DD8DFE803F043
:101B60003C4C4C4C4C4C3C4C4C0B27374C4C4C4C50
:101B70004C4C4C4C3C3C90F84B1090F84A30C26BAB
:101B800043EA01239A4212D2C3681D8AB2FBF5F3DD
:101B900005FB13255DB9202383F3118829462A46C6
:101BA0002B46FFF723FE85F311880A2322E0142336
:101BB00084F83430202383F3118800210B4620461B
:101BC0000A46FFF701FE002383F3118838BD036C3A
:101BD00003B1984700230DE0002101F01BF92046D6
:101BE000002101F00DF963681B6813B1204606213E
:101BF0009847062384F8343038BD000090F834202C
:101C0000152A38B5044631D80123934040F6416285
:101C10001A40DAB913F480150FD19B0226D50B2395
:101C200080F83430202383F3118829462A462B4636
:101C3000FFF7DCFD85F3118838BDC3689B695B68DD
:101C4000A3B9036C03B1984700230DE0002101F014
:101C5000E1F82046002101F0D3F863681B6813B156
:101C6000204606219847062384F8343038BD00000A
:101C7000024B00221B605B609A607047AC3600200C
:101C8000002303748268054B1B6899689142FBD25C
:101C90005A6803604260106058607047AC3600209C
:101CA00008B5202383F31188037C032B03D0042B76
:101CB00005D04BB90EE0436900221A6004E090E8B9
:101CC0000C001A60026853604FF0FF334361FFF766
:101CD000D7FF002383F3118808BD0000002303749D
:101CE0008268054B1B6899689142FBD85A6803606B
:101CF0004260106058607047AC360020054B19698F
:101D00000874186802681A6053601861012303742C
:101D1000FEF7FABAAC36002030B54B1C87B005464A
:101D20000A4C0DD023690A4A01A800F0D3F82846CE
:101D3000FFF7E4FF049B2BB101A800F007F901E0D5
:101D4000FFF7DCFF2369586907B030BDAC360020CF
:101D5000A11C000838B50C4D41612B6981689A6857
:101D60009142044603D8BDE83840FFF789BF1846C2
:101D7000FFF786FF01232C61014623742046BDE84E
:101D80003840FEF7C1BA00BFAC360020044B1A68D9
:101D90001B6990689B68984294BF0020012070479F
:101DA000AC36002010B5084C236820691A68226000
:101DB0005460012223611A74FFF790FF01462069E5
:101DC000BDE81040FEF7A0BAAC36002082600222C7
:101DD00002740022427470478368A3F17C0243F8C6
:101DE0000C2C026943F83C2C426943F8382C074A12
:101DF00043F81C2CC26843F8102C022203F8082C6C
:101E0000002203F8072CA3F11800704721030008F3
:101E100010B5202383F31188FFF7DEFF002104466D
:101E2000FFF798FF002383F31188204610BD0000C0
:101E3000024B1B6958610F20FFF760BFAC360020D2
:101E4000202383F31188FFF7F3BF000008B5014694
:101E5000202383F311880820FFF75EFF002383F31C
:101E6000118808BD49B1064B42681B6918605A6069
:101E7000136043600420FFF74FBF4FF0FF307047FF
:101E8000AC3600200368834206D01A6802605060B6
:101E900059611846FFF7F4BE7047000038B5044694
:101EA0000D462068A04206D0036823605C6045614F
:101EB000FFF7E6FEF5E738BD054B03F114025A6162
:101EC0009A614FF0FF32DA6100221A62704700BF58
:101ED000AC360020F8B503614FF08043C2605C6A05
:101EE000194B1A46012998BF022152F8145F9542F6
:101EF00006461F460AD1586198611C62056045601C
:101F000081600819BDE8F84001F09AB9186AAB6819
:101F1000241A0C1905D29C4205D2204401F09EF9E6
:101F200001E02D68E41AAB68A342FAD36B687360D2
:101F300035601E606E60B460A9684FF0FF33091B06
:101F4000A960FB61F8BD00BFAC36002010B51A4C8B
:101F5000234653F8141F81420ED0416802680A607C
:101F6000026851609A424FF00001C16023D091682D
:101F700083680B44936010BD0A68626100209A4236
:101F80005360C86003D1BDE8104001F061B98868B2
:101F90009368034493604FF08042206A526A121A99
:101FA0009A4208D2991A012998BF931C1844BDE897
:101FB000104001F053B910BDAC360020002070472E
:101FC000FEE70000704700004FF0FF307047000050
:101FD000022906D0032906D00129064818BF00208F
:101FE000704705487047032A9ABF044B03EBC200B1
:101FF00000207047903A0008AC39000808240020FF
:1020000070B5044608460D46FEF71CFE06462046FF
:10201000013403783BB12946F2B2FEF7FBFD0028FC
:10202000F5D1012070BD184670BD00002DE9F043C8
:1020300007469BB008460C461646FEF703FE3A4993
:10204000C5B22046FFF7DCFF08B10535EDB22046EA
:102050003649FFF7D5FF08B11035EDB2632D0DF10C
:10206000040801DC454616E04046214601F012FC1A
:102070003CE0B9F1250F32D120462B490722FEF76B
:10208000C9FD70B92A4A13682B6053686B60936866
:10209000AB6007340C3594F80090B9F1000FE8D12B
:1020A00022E0204621490822FEF7B4FDB8B92149B3
:1020B000AB1C11F8012F20484FEA121E02F00F024C
:1020C0001EF800E0125C03F8012C1C4A03F802EC35
:1020D000914203F10203ECD118350834DBE785F8AF
:1020E000009001340135D6E785F800904046FEF7B0
:1020F000A9FDC0B2431C5B0087E84800337003238E
:10210000737002360023DAB2824206F1020608D268
:1021100018F8032006F8022C002206F8012C0133DF
:10212000F1E71BB0BDE8F083D8390008E0390008BA
:10213000E93900080F7AFF1FF63900081B7AFF1FE4
:1021400008B5202383F311880348FFF773FA0023AF
:1021500083F3118808BD00BFFC36002010B504468B
:10216000052924D8DFE801F013230313131A2023D1
:1021700083F3118801210E4AFFF7FEFA204602215F
:102180000C4AFFF7F9FA0C48FFF71AFA0CE0202383
:1021900083F311880848FFF7EFF905E0202383F364
:1021A00011880548FFF700FA002383F3118810BD5A
:1021B00088390008B4390008FC36002038B50C4DC9
:1021C0000C4C0D4905F108002246FFF72FFF05F1E1
:1021D000100004F1CA020949FFF728FF05F11800B1
:1021E00004F5CA720649BDE83840FFF71FBF00BFBB
:1021F00008240020B43B0020073A0008113A0008E8
:10220000E0390008BFF34F8F024BDB68DB03FBD4E0
:10221000704700BF003C024008B5094B1B7873B9FA
:10222000FFF7F0FF074B1A69002ABFBF064A5A6042
:1022300002F188325A601A6822F480621A6008BD7E
:10224000453E0020003C02402301674508B50B4B8A
:102250001B7893B9FFF7D6FF094B1A6942F0004289
:102260001A611A6842F480521A601A6822F4805285
:102270001A601A6842F480621A6008BD453E002068
:10228000003C02400B2830B513D80B4A0B4C137896
:1022900063B94FF000610A4D44F8231055F82350FC
:1022A00001330C2B2944F6D10123137054F820007C
:1022B00030BD002030BD00BF443E0020143E002051
:1022C000983A0008014B53F820007047983A0008EC
:1022D0000C2070470B2810B5044601D9002010BD12
:1022E000FFF7D0FF064B53F824100A4643189B1AF9
:1022F00022B11B680133F1D1043AF7E7012010BD88
:10230000983A00080B2838B5044621D8114DFFF73C
:1023100079FFFFF781FFF323EB60FFF773FF0C22D8
:10232000B4FBF2F302FB1343DB00DBB243F40073B4
:1023300043F002032B612B6943F480332B61FFF7D9
:1023400061FFFFF783FF2046BDE83840FFF7C2BFBB
:10235000002038BD003C02402DE9F84F1446E2074A
:10236000074689466ED42318B3F1016F6AD2374B02
:102370001B68DB0766D5FFF74FFF354BF322DA60AA
:10238000FFF740FF4E46A246C9EB0708BAF1030F1C
:10239000B346B04401D8B14624E018F0030FFAD197
:1023A0002B4D2B6923F440732B612B6943F400738D
:1023B00043F001032B613368C8F80030BFF34F8F3F
:1023C000FFF720FFEB6813B1F323EB602BE0D8F8A5
:1023D0000080DBF80030984506F1040623D1AAF10D
:1023E000040AD1E7C9EB0A033344194DC6EB0807C9
:1023F000012B4F442B691DD923F440732B612B69AA
:1024000043F4807343F001032B61CB4639F8023B60
:102410003B80BFF34F8FFFF7F5FE3F88BBF80030DE
:10242000BFB2BB42DED02B6923F001032B61FFF763
:102430000DFF07E023F001032B61FFF707FF2046A4
:10244000BDE8F88F4FF0FF30BDE8F88F003802404C
:10245000003C024010B5084C237828B153B9FFF76F
:10246000DBFE0123237010BD23B12070BDE81040B6
:10247000FFF7ECBE10BD00BF453E0020014B186DBC
:10248000704700BF002800400A4B1A6F12045FBF5C
:102490001A6F42F400721A671A6F5CBF42F400426E
:1024A0001A67054A136843F480731360034B186579
:1024B000704700BF00380240007000400028004014
:1024C000064A536823F001035360EFF3098368332E
:1024D00083F30988002383F31188704730EF00E00D
:1024E00010B5202383F31188104B5B6813F400634D
:1024F00018D0F1EE103AEFF309844FF0807344F8EE
:102500004C3C0B4BDB6844F8083CA4F1680383F3B4
:102510000988FFF73BFC08B1064B00E0064B44F886
:10252000503C10BD83F3118810BD00BF00ED00E0EA
:1025300030EF00E03103000834030008704700006A
:10254000FEE70000084A094B09498B4204D252F8C1
:10255000041F43F8041BF7E7064A934203D2002204
:1025600043F8042BF8E770473C3C00083841002052
:102570003841002038410020836D30B5446D9D689E
:10258000002204EB4213013200214FF0FF30AA4237
:10259000C3F80019C3F81019C3F80809C3F8001BE1
:1025A000C3F8101BC3F8080BEBD94FF00113C4F8A4
:1025B0001C3830BD890141F02001016103699B068F
:1025C000FCD4122000F0D4BE2DE9F043204D05EBE1
:1025D0008003D5F85490D3F80CC0DCF8142000F137
:1025E000010ED2F8008009EB0E3E516841450CD334
:1025F000696D0123D1F8342803FA00F022EA0002C1
:10260000C1F834281846BDE8F083BCF81040C1EB8F
:102610000803A34228BF234609EB4014D4F8184905
:10262000A4B2B3EB840F0FD8946826463768CEF86F
:1026300000709F1B2744042F01D90436F6E71C4481
:102640000B4494605360D0E70020BDE8F08300BFE6
:10265000483E002010B5054C2046FFF76DF84FF0BE
:10266000A0436365024BA36510BD00BF483E002038
:10267000C83A00080378012B70B50546446D4ED169
:10268000274B98421BD1274B5A6B42F080025A636A
:102690005A6D42F080025A655A6D5A6942F08002C2
:1026A0005A615A6922F080025A6143200E215B6907
:1026B000FEF7B4FC1C4BE3601C4BC4F8003800234D
:1026C000C4F8003EC02323604FF40413A3636E6D6F
:1026D000202000F04DFE012333613369DB07FCD479
:1026E000122000F045FE3369002BFCDA0026A660BC
:1026F0002846FFF741FF6B68C4F81068DB68C4F830
:102700001468C4F81C680BB9094B00E0094BA361BD
:102710004FF0FF336361A36843F00103A36070BD12
:10272000483E0020003802404014004003002002D0
:10273000003C30C0083C30C070B5446D05460021F7
:102740002046FFF737FFA96D00234FF001128E6876
:10275000C4F83438C4F81C2804EB43124FF000606E
:102760000133C2F80009B342C2F8000B4FF0FF304A
:10277000C2F80809C2F8080BEED90B68EB656A6D60
:102780000B68636210231361136913F01006FBD109
:10279000122000F0EDFDD4F8003823F4FE63C4F8F5
:1027A0000038A36943F4402343F01003A3610923D5
:1027B000C4F81038C4F814380A4BEB604FF0C0432B
:1027C000C4F8103B084BC4F8003BC4F81069C4F8C7
:1027D0000039EB6D03F1100243F48013EA65A36244
:1027E00070BD00BFD43A000840800010426D90F8E0
:1027F0004E10D2F8003823F4FE6343EA0113C2F806
:10280000003870472DE9F0410FB200EB87080D4604
:10281000D8F80C10446D0E6806F00303022B07D0A5
:10282000032B07D03D4A3E4E012B18BF164602E04F
:102830003C4E00E03C4E6A01A3184FF0000EC3F876
:1028400010EB8B6905F1100C8BB1B1F812E005F1BA
:1028500058035B0146EA0E0E44F803E04FF0010E08
:10286000D4F81C380EFA0CFE4EEA03030FE004EB1A
:10287000471EDEF8003B23F40043CEF8003BD4F8BB
:102880001C384FF0010E0EFA0CFE23EA0E03224410
:10289000C4F81C380023C2F810394B6905F13F0217
:1028A0000BB30B8A898B9B08012988BF4B43C16DF1
:1028B00004EB82025F1841EA0343C765294653606F
:1028C0002046FFF777FED8F80C301B8A43EA855381
:1028D0001E4305F148035B01E6500123D4F81C2890
:1028E000AB40134315E004EB8202104B53602046CB
:1028F0002946FFF75FFE04EB4713D3F8002922F4C3
:102900000042C3F80029D4F81C280123AB4022EA76
:102910000303C4F81C38BDE8F08100BF008000103C
:10292000008004100080081000800C1000040002D9
:10293000826D1268C265FFF71FBE00005831436DFB
:1029400049015B5813F4004004D013F4001F14BF76
:1029500001200220704700004831436D49015B5857
:1029600013F4004004D013F4001F14BF0120022010
:102970007047000000EB8101CB68196A0B68136097
:102980004B6853607047000000EB810330B5DD6891
:10299000AA691368D36019B9402B84BF4023136020
:1029A00014686B8A426D013C1C44B4FBF3F463432E
:1029B000E004033340F0C04023F00303034302EB81
:1029C000411009B2C0F8103B2B6803F00303012B40
:1029D0000ED1D2F8083802EB411013F4807FD0F802
:1029E000003B14BF43F0805343F00053C0F8003B5A
:1029F00002EB4112D2F8003B43F00443C2F8003B23
:102A000030BD00002DE9F041244D6E6D06EB401302
:102A10000446D3F8087BC3F8087B38070AD5D6F8F4
:102A20001438190706D505EB84032846DB682146D0
:102A30005B689847FA072ED5D6F81438DB072AD5F5
:102A400005EB8403D9688B69C4B94A8A5E68B6FB12
:102A5000F2F002FB10628AB91868DA6890420DD26F
:102A6000121A83E81400202383F311880B482146AF
:102A7000FFF78AFF84F31188BDE8F0816A8901239A
:102A8000A34022EA03036B81CB6823B121460348AC
:102A9000BDE8F0411847BDE8F08100BF483E002086
:102AA00000EB8103F0B5DD68436D6A691668D66096
:102AB0004C011EB91C444FF400220FE019B9402EFE
:102AC00084BF4020106012682F8A42F00056013AFD
:102AD000D0191C44B0FBF7F246EAC242C4F81029F0
:102AE0002A6802F00302012A0AB20ED1D3F80808BC
:102AF00003EB421410F4807FD4F8000914BF40F0B7
:102B0000805040F00050C4F8000903EB4212D2F8A4
:102B1000000940F00440C2F80009D3F8340801224B
:102B20008A400243C3F83428F0BD0000F8B50446DB
:102B30001D48456D05EB4413D3F80869C3F80869CF
:102B4000F10722D5D5F81038DA071ED500EB84033B
:102B5000D9684B691F68DA6897420CD2D21B0027EC
:102B60001A605F60202383F311882146FFF798FFE6
:102B700087F3118809E002890123A34022EA0303B5
:102B800003818B680BB12146984733060AD5D5F8E7
:102B900034280123A340134204D02046BDE8F84066
:102BA000FFF712BDF8BD00BF483E002093482DE955
:102BB000F843446D6369A5691D4015F4805F656144
:102BC000064602D0FEF724FE13E1002D12DAD4F8F7
:102BD000003E8A489B071EBFD4F8003E23F0030343
:102BE000C4F8003ED4F8043823F00103C4F80438D4
:102BF000FEF738FE2F0502D58048FEF727FEA80411
:102C00000CD5D4F8083813F0060FE36823F470539A
:102C10000CBF43F4105343F4A053E360290704D5D9
:102C20007368DB680BB175489847EA0202D4AB02BF
:102C300043D538E0D6F854904FF00008B36D9B6848
:102C40005FFA88F79F42F2D809EB4713D3F80029BF
:102C500002F44022B2F5802F22D1D3F80029002AB5
:102C60001EDAD3F8002942F09042C3F80029D3F8C5
:102C70000029002AFBDB706D3946FFF79BFC328987
:102C80000123BB4022EA0303338106EB8703DB68A1
:102C90009B6813B15948394698473846FFF794FC6A
:102CA00008F10108CAE7776D4FF00008B36D53488B
:102CB0009B685FFA88F1994202D9EF066BD51BE059
:102CC00007EB4112D2F8003B03F44023B3F5802F09
:102CD0000FD1D2F8003B002B0BDA428901238B4045
:102CE00022EA0303438100EB8103DB68DB6803B165
:102CF000984708F10108D9E7706D404B026AC2F3AA
:102D00000A1702F00F0102F4F012B2F5802F18D06A
:102D1000B2F5402F3FD103EB8103DB68196A002332
:102D20001A46BB4237D09E0704BF00F58052126896
:102D3000072B98BF0A7003F101039CBF120A0131EF
:102D4000EFE78A1C03EB82035B6899690B68D1F893
:102D500008C04968C1EB030E00231946BB4210D0DE
:102D600013F0030F04BF00F580510968734538BFA5
:102D70008CF8001003F101033CBF090A0CF1010CAF
:102D8000ECE706EB820672689269916819449160DB
:102D900051680B4453602903D4F8184813D5E20353
:102DA00002D50020FFF72EFEA30302D50120FFF776
:102DB00029FE670302D50220FFF724FE260302D571
:102DC0000320FFF71FFE6D0313D5E00702D5002097
:102DD000FFF7ACFEA10702D50120FFF7A7FE6207AF
:102DE00002D50220FFF7A2FE230702D50320FFF73A
:102DF0009DFEBDE8F843FFF773BB00BF483E0020CF
:102E0000436D03EB4111D1F8003B43F40013C1F8CB
:102E1000003B7047436D03EB4111D1F8003943F497
:102E20000013C1F800397047436D03EB4111D1F82D
:102E3000003B23F40013C1F8003B7047436D03EBE4
:102E40004111D1F8003923F40013C1F8003970475B
:102E500030B5039C0172043304FB0325C361049B5A
:102E600003630021059B00604060C1604261026114
:102E70008561046242628162C162436330BD0000C9
:102E80000022416A41610161C2608262C2626FF0E8
:102E90000101FFF703B8000003694269934203D1BF
:102EA000C2680AB100207047181D704710B5046948
:102EB0002160C268C3690132C260826923449342BF
:102EC000036124BF436A03610021BDE81040FEF79F
:102ED000D9BF000038B504460D46E36843B9237AEC
:102EE00073B920462946FEF7BDFF0028F5DA09E050
:102EF00063691A1D1B68A2621344E362002038BD97
:102F00006FF0010038BD0000C3684269013BC36037
:102F1000C369134482694361934224BF436A436196
:102F200000238362036B03B11847704738B5054629
:102F3000202383F31188846A2CB9FFF7CBFF10B1EB
:102F400084F3118838BDAB6AEA6A13F8014BAB62AF
:102F5000934202D32846FFF7D7FF002383F311885B
:102F6000204638BD2DE9F0471F4604460E469146DF
:102F7000202383F311884FF080434FF0000A5B6AEF
:102F800007EB0308A36AA3B97A1E033202D92046CD
:102F9000394607E04FF08042516AC1EB0801B9425F
:102FA00004D82046FFF796FF18B1002383F3118859
:102FB00032E0A16AE56ACAEB09036D1A9D4228BF97
:102FC0001D46402D0FD9334601F1400251F8040B44
:102FD00043F8040B9142F9D1A36A40334036A3620F
:102FE0000AF1400A08E030462A46FDF709FEA36AC6
:102FF0002B442E44A362AA44A26AE36A9A4202D3F3
:103000002046FFF781FF002383F31188CA4503D2CE
:10301000202383F31188B5E75046BDE8F087000010
:1030200010B5029C0172043303FB0421C361002329
:103030008362C362039B0363049B00604060C460BF
:1030400042610261816104624262436310BD00001B
:10305000026AC260426A4261026100228262C26206
:103060006FF00101FEF71ABF436902699A4203D16A
:10307000C2680AB100207047184650F8043B0B6044
:1030800070470000C36842690133C360C3691344D9
:1030900082694361934224BF436A43610021FEF782
:1030A000F1BE000038B504460D46E36843B9237A03
:1030B00073B920462946FEF7D5FE0028F5DA09E067
:1030C0002269131DA362E3691344E362002038BD43
:1030D0006FF0010038BD000010B504692160C268BE
:1030E000C369013AC260826923449342036124BFE9
:1030F000436A036100238362036B13B1BDE8104090
:10310000184710BD70B5202304460E4683F311887E
:10311000856A35B91146FFF7C5FF10B185F31188EF
:1031200070BDA36A1E70A36AE26A01339342A36270
:1031300004D3E16920460439FFF7CEFF002080F375
:10314000118870BD2DE9F0471F4604460D46914693
:10315000202383F311884FF080434FF0000A5B6A0D
:1031600007EB0308A36AA3B97A1E033202D92046EB
:10317000394607E04FF08042516AC1EB0801B9427D
:1031800004D82046FFF78EFF18B1002383F311887F
:1031900032E0A06AE66ACAEB0903361A9E4228BFEB
:1031A0001E46402E0DD905F1400355F8042B40F87A
:1031B000042B9D42F9D1A36A4033A3620AF1400A6D
:1031C00008E029463246FDF71BFDA36A3344354427
:1031D000A362B244A26AE36A9A4204D3E169204638
:1031E0000439FFF779FF002383F31188CA4503D21E
:1031F000202383F31188B5E75046BDE8F08700002F
:10320000026943699A4203D1C3680BB1836A0BB95F
:1032100000207047043B9B1AFAD01360C368013B3F
:10322000C360C3691A44836902619A4224BF436A36
:1032300003610023836201207047000000F02EB973
:103240004FF08043002258631A610222DA6070470F
:103250004FF080430022DA60704700004FF0804357
:1032600058637047FEE7000010B5174CFEF700FDED
:10327000FEF722FE204615498022FEF7A7FD012316
:1032800044F8180C0374124B124AD96821F4E06117
:103290000904090C0A431049DA60CA6842F08072D6
:1032A000CA600E490A6842F001020A601022DA7709
:1032B000202283F82220002383F3118862B6084875
:1032C000BDE81040FEF7A4BDD4360020F83A00084F
:1032D00000ED00E00003FA05F0ED00E0001000E072
:1032E000043B00082DE9F843204D6C69A2681F4992
:1032F0004FF0804301F11408586A2B6AC61A9642AF
:103300001ED3A2682B6AD4F80C901344B61A226814
:103310002B6242454FF00003C2F804801F466A61E9
:10332000E36001D1FFF794FF87F311882069C84754
:10333000202383F311886C69A368B342E1D9D5E7F0
:103340004A6942450FD033440B6291688E1B9660E8
:10335000A2681B1A1344012B98BF02231844BDE82E
:10336000F843FFF77BBFBDE8F88300BFAC36002011
:10337000034B59685A68521A8242FBD3704700BF08
:10338000001000E04B6843608B688360CB68C360CB
:103390000B6943614B6903628B6943620B6803608D
:1033A00070470000224B2348196940F2FF12114375
:1033B00010B519611969204C21F4FF7121F0010148
:1033C00019611969196B11431963196D0A431A655B
:1033D00021461B6DFFF7D6FF04F11C011748FFF7CC
:1033E000D1FF04F138011648FFF7CCFF04F1540176
:1033F0001448FFF7C7FF04F170011348FFF7C2FF3D
:1034000004F18C011148FFF7BDFF04F1A801104839
:10341000FFF7B8FF04F1C4010E48FFF7B3FF04F152
:10342000E0010D48FFF7AEFFBDE8104000F0A0B886
:1034300000380240000002401C3B0008000402402B
:1034400000080240000C024000100240001402403C
:1034500000180240001C02400020024008B500F0A5
:10346000FBF9FFF701FFBDE80840FEF7A7BE00002B
:10347000704700004FF0804310B51A69920708D5D5
:1034800000241C61202383F31188FFF72BFF84F3B2
:103490001188BDE81040FFF723B80000104B1A6CEC
:1034A00042F001021A641A6E42F001021A660D4AD5
:1034B0001B6E936843F0010393604FF080435322E7
:1034C0009A624FF0FF32DA6200229A615A63DA6040
:1034D0005A6001225A611C201A600821FDF79EBD26
:1034E00000380240002004E01F4B1A696FEAC25204
:1034F0006FEAD2521A611A69C2F308021A614FF0D8
:10350000FF301A695A69586100215A6959615A692C
:103510001A6A62F080521A621A6A02F080521A62C3
:103520001A6A5A6A58625A6A59625A6A1A6C42F09E
:1035300080521A641A6E42F080521A661A6E0B4A52
:10354000106840F480701060186F00F44070B0F59F
:10355000007F1EBF4FF4803018671967536823F44B
:103560000073536000F058B900380240007000400A
:10357000324B4FF080521A64314A4FF4404111608F
:103580001A6842F001021A6019682C4A8807FBD5B4
:10359000936823F003039360284B9A6812F00C029F
:1035A000FAD1196801F0F90119609A601A6842F4B9
:1035B00080321A601968214A8903FBD5536F43F0A2
:1035C000010353671D4B5A6F9007FBD51D4A5A6084
:1035D0001A6842F080721A60194B5B685904FBD577
:1035E000164B1A689201FBD5174A9A60174B1A6856
:1035F000174B9A42174B07D1174A1168174A914245
:1036000002D140F2051201E040F205721A600B4B44
:103610009A6842F002029A601A469168074B01F0DC
:103620000C010829F9D15A6C42F480425A645A6E4E
:1036300042F480425A665B6E704700BF0038024019
:10364000007000400854400700948838002004E0CF
:1036500011640020003C024000ED00E041C20F4137
:10366000084A08B5516913680B4003F00103536120
:1036700023B1054A13680BB150689847BDE808406C
:10368000FEF72EBF003C0140B8400020084A08B5B4
:10369000516913680B4003F00203536123B1054ADB
:1036A00093680BB1D0689847BDE80840FEF718BF93
:1036B000003C0140B8400020084A08B55169136831
:1036C0000B4003F00403536123B1054A13690BB1A6
:1036D00050699847BDE80840FEF702BF003C014032
:1036E000B8400020084A08B5516913680B4003F040
:1036F0000803536123B1054A93690BB1D069984718
:10370000BDE80840FEF7ECBE003C0140B840002098
:10371000084A08B5516913680B4003F01003536160
:1037200023B1054A136A0BB1506A9847BDE80840B7
:10373000FEF7D6BE003C0140B8400020174B10B544
:103740005A691C68144004F478725A61A30604D5BF
:10375000134A936A0BB1D06A9847600604D5104AA1
:10376000136B0BB1506B9847210604D50C4A936B31
:103770000BB1D06B9847E20504D5094A136C0BB125
:10378000506C9847A30504D5054A936C0BB1D06CD7
:103790009847BDE81040FEF7A3BE00BF003C0140C3
:1037A000B84000201A4B10B55A691C68144004F444
:1037B0007C425A61620504D5164A136D0BB1506DF7
:1037C0009847230504D5134A936D0BB1D06D9847E4
:1037D000E00404D50F4A136E0BB1506E9847A10454
:1037E00004D50C4A936E0BB1D06E9847620404D591
:1037F000084A136F0BB1506F9847230404D5054A4C
:10380000936F0BB1D06F9847BDE81040FEF768BECC
:10381000003C0140B8400020062008B50146FDF7F5
:10382000FDFB07200621FDF7F9FB08200621FDF727
:10383000F5FB09200621FDF7F1FB0A200621FDF723
:10384000EDFB17200621FDF7E9FB28200621BDE846
:103850000840FDF7E3BB000008B5FFF745FE00F0A8
:103860000DF8FDF77BFDFDF765FFFDF73DFEFFF76A
:10387000FFFDBDE80840FFF7E1BC00000023044A5B
:10388000002199501A440833802B5160F7D17047BA
:10389000B8400020034611F8012B03F8012B002A41
:1038A000F9D170471210121312110000FC360020DB
:1038B00074290020DC2D002044320020000000008C
:1038C000EC3800083F00000013040000F638000840
:1038D0003F00000019040000003900083F0000000C
:1038E000210400000A3900083F00000053544D3302
:1038F00032463F3F3F0053544D3332463430780018
:1039000053544D3332463432780053544D3332469B
:1039100034343658580000000096000000000000C3
:103920000000000000000000000000000000000097
:103930002913000815130008511300083D1300084F
:103940004913000835130008211300080D1300085F
:103950000913000800000000651400085114000855
:103960008D140008791400088514000871140008EB
:103970005D1400084914000801140008000000004C
:103980000000000001000000020000000000000034
:1039900081160008ED16000840004000943B00200E
:1039A000A43B0020020000000000000043000000D3
:1039B0002C3A000803000000000000003117000846
:1039C0000000000010000000EC36002000000000A5
:1039D000010000000000000025424F415244250034
:1039E0002553455249414C25004633354C6967689B
:1039F000746E696E6700303132333435363738399A
:103A0000414243444546004172647550696C6F748D
:103A10000025424F415244252D424C005D210008B3
:103A2000D11F0008ED1500084121000809024300DC
:103A3000020100C032090400000102020100052455
:103A400000100105240100010424020205240600DF
:103A500001070582030800FF09040100020A0000B3
:103A60000007050102400000070581024000000038
:103A700012011001020000408304405700020102BD
:103A80000301000004030904483E00200101020074
:103A900012000000703A00080040000000400000E2
:103AA0000040000000400000000001000000020093
:103AB00000000200000002000000020000000200FE
:103AC0000000020000000200800000004001000031
:103AD000030000000000000079180008511B0008D6
:103AE000FD1B000840004000A83E0020A83E00202A
:103AF00001000000B83E00206D61696E0069646CD1
:103B000065000000FD3A0008C03E0020B8400020DB
:103B1000010000006532000800000000A000A802BB
:103B200000000000AAAAAAAA50001400FFFF00008B
:103B30000077000070A70A000000000000000000ED
:103B4000AAAAAAAA00000000FFFF000000000000CF
:103B5000000000000000100200000000AAAAAAAAAB
:103B600000000001FFFB0000000000000000080052
:103B70002000000000000000AAAAAAAA100000006D
:103B8000FFFF00000008000000000000000000002F
:103B900000000000AAAAAAAA00000000FFFF00007F
:103BA0000000000000000000000000000000000015
:103BB000AAAAAAAA00000000FFFF0000000000005F
:103BC000000000000000000000000000AAAAAAAA4D
:103BD00000000000FFFF00000000000000000000E7
:103BE00000000000000000000A00000000000000CB
:103BF00003000000000000000000000000000000C2
:103C000000000000000000000000000000000000B4
:103C10000000000000000000FF0096000000000807
:103C200004000000843A00080000000000000000CA
:103C30000000000000000000000000000000000084
:00000001FF
